{
    "contractName": "sideChain",
    "abi": [
        {
            "inputs": [
                {
                    "internalType": "uint256",
                    "name": "node",
                    "type": "uint256"
                }
            ],
            "name": "retrieveTE",
            "outputs": [
                {
                    "internalType": "string[]",
                    "name": "",
                    "type": "string[]"
                }
            ],
            "stateMutability": "view",
            "type": "function"
        },
        {
            "inputs": [
                {
                    "internalType": "uint256",
                    "name": "node",
                    "type": "uint256"
                }
            ],
            "name": "retrieveTV",
            "outputs": [
                {
                    "internalType": "string[]",
                    "name": "",
                    "type": "string[]"
                }
            ],
            "stateMutability": "view",
            "type": "function"
        },
        {
            "inputs": [
                {
                    "internalType": "string[]",
                    "name": "TEAry",
                    "type": "string[]"
                }
            ],
            "name": "uploadTE",
            "outputs": [
                {
                    "internalType": "bool",
                    "name": "",
                    "type": "bool"
                }
            ],
            "stateMutability": "nonpayable",
            "type": "function"
        },
        {
            "inputs": [
                {
                    "internalType": "string[]",
                    "name": "TVAry",
                    "type": "string[]"
                }
            ],
            "name": "uploadTV",
            "outputs": [
                {
                    "internalType": "bool",
                    "name": "",
                    "type": "bool"
                }
            ],
            "stateMutability": "nonpayable",
            "type": "function"
        }
    ],
    "bytecode": "608060405234801561001057600080fd5b50610641806100206000396000f3fe608060405234801561001057600080fd5b506004361061004c5760003560e01c806315f6ca96146100515780636aa248d9146100795780637338cb8a1461008c578063f6916742146100ac575b600080fd5b61006461005f36600461041d565b6100bf565b60405190151581526020015b60405180910390f35b61006461008736600461041d565b61013f565b61009f61009a366004610492565b6101b5565b60405161007091906104ab565b61009f6100ba366004610492565b6102a2565b6000805b600581101561013557600581600581106100df576100df610546565b018484838181106100f2576100f2610546565b9050602002810190610104919061055c565b82546001810184556000938452602090932061012293019190610384565b508061012d816105aa565b9150506100c3565b5060019392505050565b6000805b6005811015610135576000816005811061015f5761015f610546565b0184848381811061017257610172610546565b9050602002810190610184919061055c565b8254600181018455600093845260209093206101a293019190610384565b50806101ad816105aa565b915050610143565b6060600082600581106101ca576101ca610546565b01805480602002602001604051908101604052809291908181526020016000905b8282101561029757838290600052602060002001805461020a906105d1565b80601f0160208091040260200160405190810160405280929190818152602001828054610236906105d1565b80156102835780601f1061025857610100808354040283529160200191610283565b820191906000526020600020905b81548152906001019060200180831161026657829003601f168201915b5050505050815260200190600101906101eb565b505050509050919050565b6060600582600581106102b7576102b7610546565b01805480602002602001604051908101604052809291908181526020016000905b828210156102975783829060005260206000200180546102f7906105d1565b80601f0160208091040260200160405190810160405280929190818152602001828054610323906105d1565b80156103705780601f1061034557610100808354040283529160200191610370565b820191906000526020600020905b81548152906001019060200180831161035357829003601f168201915b5050505050815260200190600101906102d8565b828054610390906105d1565b90600052602060002090601f0160209004810192826103b257600085556103f8565b82601f106103cb5782800160ff198235161785556103f8565b828001600101855582156103f8579182015b828111156103f85782358255916020019190600101906103dd565b50610404929150610408565b5090565b5b808211156104045760008155600101610409565b6000806020838503121561043057600080fd5b823567ffffffffffffffff8082111561044857600080fd5b818501915085601f83011261045c57600080fd5b81358181111561046b57600080fd5b8660208260051b850101111561048057600080fd5b60209290920196919550909350505050565b6000602082840312156104a457600080fd5b5035919050565b6000602080830181845280855180835260408601915060408160051b87010192508387016000805b8381101561053857888603603f1901855282518051808852835b81811015610508578281018a01518982018b015289016104ed565b8181111561051857848a838b0101525b50601f01601f1916969096018701955093860193918601916001016104d3565b509398975050505050505050565b634e487b7160e01b600052603260045260246000fd5b6000808335601e1984360301811261057357600080fd5b83018035915067ffffffffffffffff82111561058e57600080fd5b6020019150368190038213156105a357600080fd5b9250929050565b6000600182016105ca57634e487b7160e01b600052601160045260246000fd5b5060010190565b600181811c908216806105e557607f821691505b60208210810361060557634e487b7160e01b600052602260045260246000fd5b5091905056fea264697066735822122088cd413153ac6b057f268fde58cbb52d6262ceccaccf70622e6616b094c559f664736f6c634300080d0033",
    "sourcePath": "c:/Users/prlab/Desktop/side_chain/public/smartcontracts/side_chain.sol",
    "compiler": {
        "name": "solc",
        "version": "0.8.13+commit.abaa5c0e"
    },
    "functionHashes": {
        "retrieveTE(uint256)": "7338cb8a",
        "retrieveTV(uint256)": "f6916742",
        "uploadTE(string[])": "6aa248d9",
        "uploadTV(string[])": "15f6ca96"
    },
    "gasEstimates": {
        "creation": {
            "codeDepositCost": "320200",
            "executionCost": "362",
            "totalCost": "320562"
        },
        "external": {
            "retrieveTE(uint256)": "infinite",
            "retrieveTV(uint256)": "infinite",
            "uploadTE(string[])": "infinite",
            "uploadTV(string[])": "infinite"
        }
    }
}